{
  "contractName": "ChangeOwnership",
  "abi": [
    {
      "constant": true,
      "inputs": [
        {
          "name": "",
          "type": "bytes32"
        }
      ],
      "name": "currentPartOwner",
      "outputs": [
        {
          "name": "",
          "type": "address"
        }
      ],
      "payable": false,
      "stateMutability": "view",
      "type": "function"
    },
    {
      "constant": true,
      "inputs": [
        {
          "name": "",
          "type": "bytes32"
        }
      ],
      "name": "currentProductOwner",
      "outputs": [
        {
          "name": "",
          "type": "address"
        }
      ],
      "payable": false,
      "stateMutability": "view",
      "type": "function"
    },
    {
      "inputs": [
        {
          "name": "prod_contract_addr",
          "type": "address"
        }
      ],
      "payable": false,
      "stateMutability": "nonpayable",
      "type": "constructor"
    },
    {
      "anonymous": false,
      "inputs": [
        {
          "indexed": true,
          "name": "p",
          "type": "bytes32"
        },
        {
          "indexed": true,
          "name": "account",
          "type": "address"
        }
      ],
      "name": "TransferPartOwnership",
      "type": "event"
    },
    {
      "anonymous": false,
      "inputs": [
        {
          "indexed": true,
          "name": "p",
          "type": "bytes32"
        },
        {
          "indexed": true,
          "name": "account",
          "type": "address"
        }
      ],
      "name": "TransferProductOwnership",
      "type": "event"
    },
    {
      "constant": false,
      "inputs": [
        {
          "name": "op_type",
          "type": "uint256"
        },
        {
          "name": "p_hash",
          "type": "bytes32"
        }
      ],
      "name": "addOwnership",
      "outputs": [
        {
          "name": "",
          "type": "bool"
        }
      ],
      "payable": false,
      "stateMutability": "nonpayable",
      "type": "function"
    },
    {
      "constant": false,
      "inputs": [
        {
          "name": "op_type",
          "type": "uint256"
        },
        {
          "name": "p_hash",
          "type": "bytes32"
        },
        {
          "name": "to",
          "type": "address"
        }
      ],
      "name": "changeOwnership",
      "outputs": [
        {
          "name": "",
          "type": "bool"
        }
      ],
      "payable": false,
      "stateMutability": "nonpayable",
      "type": "function"
    }
  ],
  "bytecode": "0x608060405234801561001057600080fd5b506040516020806110aa8339810180604052602081101561003057600080fd5b810190808051906020019092919050505080600260006101000a81548173ffffffffffffffffffffffffffffffffffffffff021916908373ffffffffffffffffffffffffffffffffffffffff16021790555050611018806100926000396000f3fe608060405260043610610062576000357c0100000000000000000000000000000000000000000000000000000000900463ffffffff16806379ab6eba146100675780637db5a2bc146100e2578063ac8144901461013f578063f0fddc94146101bc575b600080fd5b34801561007357600080fd5b506100a06004803603602081101561008a57600080fd5b8101908080359060200190929190505050610237565b604051808273ffffffffffffffffffffffffffffffffffffffff1673ffffffffffffffffffffffffffffffffffffffff16815260200191505060405180910390f35b3480156100ee57600080fd5b506101256004803603604081101561010557600080fd5b81019080803590602001909291908035906020019092919050505061026a565b604051808215151515815260200191505060405180910390f35b34801561014b57600080fd5b506101a26004803603606081101561016257600080fd5b810190808035906020019092919080359060200190929190803573ffffffffffffffffffffffffffffffffffffffff169060200190929190505050610ab3565b604051808215151515815260200191505060405180910390f35b3480156101c857600080fd5b506101f5600480360360208110156101df57600080fd5b8101908080359060200190929190505050610f96565b604051808273ffffffffffffffffffffffffffffffffffffffff1673ffffffffffffffffffffffffffffffffffffffff16815260200191505060405180910390f35b60006020528060005260406000206000915054906101000a900473ffffffffffffffffffffffffffffffffffffffff1681565b600080600181111561027857fe5b83141561068d576000600260009054906101000a900473ffffffffffffffffffffffffffffffffffffffff1673ffffffffffffffffffffffffffffffffffffffff16638c431b9f846040518263ffffffff167c01000000000000000000000000000000000000000000000000000000000281526004018082815260200191505060006040518083038186803b15801561031057600080fd5b505afa158015610324573d6000803e3d6000fd5b505050506040513d6000823e3d601f19601f82011682018060405250608081101561034e57600080fd5b8101908080519060200190929190805164010000000081111561037057600080fd5b8281019050602081018481111561038657600080fd5b81518560018202830111640100000000821117156103a357600080fd5b505092919060200180516401000000008111156103bf57600080fd5b828101905060208101848111156103d557600080fd5b81518560018202830111640100000000821117156103f257600080fd5b5050929190602001805164010000000081111561040e57600080fd5b8281019050602081018481111561042457600080fd5b815185600182028301116401000000008211171561044157600080fd5b505092919050505090915090505080915050600073ffffffffffffffffffffffffffffffffffffffff1660008085815260200190815260200160002060009054906101000a900473ffffffffffffffffffffffffffffffffffffffff1673ffffffffffffffffffffffffffffffffffffffff16141515610529576040517f08c379a000000000000000000000000000000000000000000000000000000000815260040180806020018281038252601b8152602001807f506172742077617320616c72656164792072656769737465726564000000000081525060200191505060405180910390fd5b3373ffffffffffffffffffffffffffffffffffffffff168173ffffffffffffffffffffffffffffffffffffffff161415156105f2576040517f08c379a00000000000000000000000000000000000000000000000000000000081526004018080602001828103825260228152602001807f5061727420776173206e6f74206d61646520627920746865207265717565737481526020017f6f7200000000000000000000000000000000000000000000000000000000000081525060400191505060405180910390fd5b3360008085815260200190815260200160002060006101000a81548173ffffffffffffffffffffffffffffffffffffffff021916908373ffffffffffffffffffffffffffffffffffffffff1602179055503373ffffffffffffffffffffffffffffffffffffffff16837f6a67eae68bb9deea9cbb16299fce22702092dc03cbcfd6a7babc7ac0036c7d4b60405160405180910390a350610aad565b60018081111561069957fe5b831415610aac576000600260009054906101000a900473ffffffffffffffffffffffffffffffffffffffff1673ffffffffffffffffffffffffffffffffffffffff166379054391846040518263ffffffff167c01000000000000000000000000000000000000000000000000000000000281526004018082815260200191505060006040518083038186803b15801561073157600080fd5b505afa158015610745573d6000803e3d6000fd5b505050506040513d6000823e3d601f19601f82011682018060405250608081101561076f57600080fd5b8101908080519060200190929190805164010000000081111561079157600080fd5b828101905060208101848111156107a757600080fd5b81518560018202830111640100000000821117156107c457600080fd5b505092919060200180516401000000008111156107e057600080fd5b828101905060208101848111156107f657600080fd5b815185600182028301116401000000008211171561081357600080fd5b5050929190602001805164010000000081111561082f57600080fd5b8281019050602081018481111561084557600080fd5b815185600182028301116401000000008211171561086257600080fd5b505092919050505090915090505080915050600073ffffffffffffffffffffffffffffffffffffffff166001600085815260200190815260200160002060009054906101000a900473ffffffffffffffffffffffffffffffffffffffff1673ffffffffffffffffffffffffffffffffffffffff1614151561094b576040517f08c379a000000000000000000000000000000000000000000000000000000000815260040180806020018281038252601e8152602001807f50726f647563742077617320616c72656164792072656769737465726564000081525060200191505060405180910390fd5b3373ffffffffffffffffffffffffffffffffffffffff168173ffffffffffffffffffffffffffffffffffffffff16141515610a14576040517f08c379a00000000000000000000000000000000000000000000000000000000081526004018080602001828103825260218152602001807f50726f6475637420776173206e6f74206d61646520627920726571756573746581526020017f720000000000000000000000000000000000000000000000000000000000000081525060400191505060405180910390fd5b336001600085815260200190815260200160002060006101000a81548173ffffffffffffffffffffffffffffffffffffffff021916908373ffffffffffffffffffffffffffffffffffffffff1602179055503373ffffffffffffffffffffffffffffffffffffffff16837fe2d5b74efaa0dc370d71f08be6bc6c865613194b7345262a998fb5232622c0b260405160405180910390a3505b5b92915050565b6000806001811115610ac157fe5b841415610c37573373ffffffffffffffffffffffffffffffffffffffff1660008085815260200190815260200160002060009054906101000a900473ffffffffffffffffffffffffffffffffffffffff1673ffffffffffffffffffffffffffffffffffffffff16141515610b9d576040517f08c379a000000000000000000000000000000000000000000000000000000000815260040180806020018281038252601e8152602001807f50617274206973206e6f74206f776e656420627920726571756573746572000081525060200191505060405180910390fd5b8160008085815260200190815260200160002060006101000a81548173ffffffffffffffffffffffffffffffffffffffff021916908373ffffffffffffffffffffffffffffffffffffffff1602179055508173ffffffffffffffffffffffffffffffffffffffff16837f6a67eae68bb9deea9cbb16299fce22702092dc03cbcfd6a7babc7ac0036c7d4b60405160405180910390a3610f8f565b600180811115610c4357fe5b841415610f8e573373ffffffffffffffffffffffffffffffffffffffff166001600085815260200190815260200160002060009054906101000a900473ffffffffffffffffffffffffffffffffffffffff1673ffffffffffffffffffffffffffffffffffffffff16141515610d46576040517f08c379a00000000000000000000000000000000000000000000000000000000081526004018080602001828103825260258152602001807f50726f64756374206973206e6f74206f776e656420627920746865207265717581526020017f657374657200000000000000000000000000000000000000000000000000000081525060400191505060405180910390fd5b816001600085815260200190815260200160002060006101000a81548173ffffffffffffffffffffffffffffffffffffffff021916908373ffffffffffffffffffffffffffffffffffffffff1602179055508173ffffffffffffffffffffffffffffffffffffffff16837fe2d5b74efaa0dc370d71f08be6bc6c865613194b7345262a998fb5232622c0b260405160405180910390a3610de4610fc9565b600260009054906101000a900473ffffffffffffffffffffffffffffffffffffffff1673ffffffffffffffffffffffffffffffffffffffff16636e730329856040518263ffffffff167c01000000000000000000000000000000000000000000000000000000000281526004018082815260200191505060c06040518083038186803b158015610e7357600080fd5b505afa158015610e87573d6000803e3d6000fd5b505050506040513d601f19601f8201168201806040525060c0811015610eac57600080fd5b8101908091905050905060008090505b6006811015610f8b57836000808484600681101515610ed757fe5b6020020151815260200190815260200160002060006101000a81548173ffffffffffffffffffffffffffffffffffffffff021916908373ffffffffffffffffffffffffffffffffffffffff1602179055508373ffffffffffffffffffffffffffffffffffffffff168282600681101515610f4d57fe5b60200201517f6a67eae68bb9deea9cbb16299fce22702092dc03cbcfd6a7babc7ac0036c7d4b60405160405180910390a38080600101915050610ebc565b50505b5b9392505050565b60016020528060005260406000206000915054906101000a900473ffffffffffffffffffffffffffffffffffffffff1681565b60c06040519081016040528060069060208202803883398082019150509050509056fea165627a7a72305820b629d8939bac1f4d214d9c3d6c61bd48940b001168c19168c0890ee35c56cf2d0029",
  "source": "pragma solidity >=0.4.21 <0.6.0;\n\n// Add ProductManagement ABI to allow calls\n\ncontract ProductManagement {\n    struct Part {\n        address manufacturer;\n        string serial_number;\n        string part_type;\n        string creation_date;\n    }\n\n    struct Product {\n        address manufacturer;\n        string serial_number;\n        string product_type;\n        string creation_date;\n        bytes32[] parts;\n    }\n\n    mapping(bytes32 => Part) public parts;\n    mapping(bytes32 => Product) public products;\n\n    function getParts(bytes32 product_hash) public pure returns (bytes32[6] memory) {}\n}\n\ncontract ChangeOwnership {\n    enum OperationType { PART, PRODUCT }\n    mapping(bytes32 => address) public currentPartOwner;\n    mapping(bytes32 => address) public currentProductOwner;\n\n    event TransferPartOwnership(bytes32 indexed p, address indexed account);\n    event TransferProductOwnership(bytes32 indexed p, address indexed account);\n    ProductManagement private pm;\n\n    constructor(address prod_contract_addr) public {\n        // Just create a new auxillary contract. we will use it to check if the part or product really exist\n        pm = ProductManagement(prod_contract_addr);\n    }\n\n    function addOwnership(uint op_type, bytes32 p_hash) public returns (bool) {\n        if(op_type == uint(OperationType.PART)) {\n            address manufacturer;\n            (manufacturer, , , ) = pm.parts(p_hash);\n            require(currentPartOwner[p_hash] == address(0), \"Part was already registered\");\n            require(manufacturer == msg.sender, \"Part was not made by the requestor\");\n            currentPartOwner[p_hash] = msg.sender;\n            emit TransferPartOwnership(p_hash, msg.sender);\n        } else if(op_type == uint(OperationType.PRODUCT)) {\n            address manufacturer;\n            (manufacturer, , , ) = pm.products(p_hash);\n            require(currentProductOwner[p_hash] == address(0), \"Product was already registered\");\n            require(manufacturer == msg.sender, \"Product was not made by requester\");\n            currentProductOwner[p_hash] = msg.sender;\n            emit TransferProductOwnership(p_hash, msg.sender);\n        }\n    }\n\n    function changeOwnership(uint op_type, bytes32 p_hash, address to) public returns (bool) {\n        // Check if the element exists and belongs to the user requesting ownership change\n        if(op_type == uint(OperationType.PART)){\n            require(currentPartOwner[p_hash] == msg.sender, \"Part is not owned by requester\");\n            currentPartOwner[p_hash] = to;\n            emit TransferPartOwnership(p_hash, to);\n        } else if(op_type == uint(OperationType.PRODUCT)) {\n            require(currentProductOwner[p_hash] == msg.sender, \"Product is not owned by the requester\");\n            currentProductOwner[p_hash] = to;\n            emit TransferProductOwnership(p_hash, to);\n            // change part ownership too\n            bytes32[6] memory part_list = pm.getParts(p_hash);\n            for(uint i = 0; i < part_list.length; i++) {\n                currentPartOwner[part_list[i]] = to;\n                emit TransferPartOwnership(part_list[i], to);\n            }\n        }\n    }\n}",
  "sourcePath": "/Users/fredrickotim/Documents/programming/ethereum/car-supply-chain/contracts/ChangeOwnership.sol",
  "compiler": {
    "name": "solc",
    "version": "0.5.0+commit.1d4f565a.Emscripten.clang"
  },
  "schemaVersion": "3.0.5",
  "updatedAt": "2019-03-29T09:48:54.688Z",
  "devdoc": {
    "methods": {}
  },
  "userdoc": {
    "methods": {}
  }
}